{
  "contractName": "Dao",
  "abi": [
    {
      "constant": true,
      "inputs": [
        {
          "name": "",
          "type": "uint256"
        }
      ],
      "name": "proj",
      "outputs": [
        {
          "name": "adminId",
          "type": "address"
        },
        {
          "name": "name",
          "type": "string"
        },
        {
          "name": "deadline",
          "type": "string"
        },
        {
          "name": "tokens",
          "type": "uint256"
        },
        {
          "name": "assigned",
          "type": "bool"
        },
        {
          "name": "assigned_to",
          "type": "address"
        },
        {
          "name": "status",
          "type": "uint8"
        },
        {
          "name": "id",
          "type": "uint256"
        },
        {
          "name": "verified",
          "type": "bool"
        },
        {
          "name": "username",
          "type": "string"
        },
        {
          "name": "employee",
          "type": "string"
        }
      ],
      "payable": false,
      "stateMutability": "view",
      "type": "function"
    },
    {
      "constant": true,
      "inputs": [],
      "name": "projectCount",
      "outputs": [
        {
          "name": "",
          "type": "uint256"
        }
      ],
      "payable": false,
      "stateMutability": "view",
      "type": "function"
    },
    {
      "constant": true,
      "inputs": [
        {
          "name": "",
          "type": "address"
        }
      ],
      "name": "balanceOf",
      "outputs": [
        {
          "name": "",
          "type": "uint256"
        }
      ],
      "payable": false,
      "stateMutability": "view",
      "type": "function"
    },
    {
      "inputs": [],
      "payable": false,
      "stateMutability": "nonpayable",
      "type": "constructor"
    },
    {
      "anonymous": false,
      "inputs": [
        {
          "indexed": false,
          "name": "owner",
          "type": "address"
        },
        {
          "indexed": false,
          "name": "projectId",
          "type": "uint256"
        },
        {
          "indexed": false,
          "name": "projectName",
          "type": "string"
        }
      ],
      "name": "projectAdded",
      "type": "event"
    },
    {
      "anonymous": false,
      "inputs": [
        {
          "indexed": false,
          "name": "projectId",
          "type": "uint256"
        },
        {
          "indexed": false,
          "name": "user",
          "type": "address"
        }
      ],
      "name": "projectAccepted",
      "type": "event"
    },
    {
      "anonymous": false,
      "inputs": [
        {
          "indexed": false,
          "name": "projectId",
          "type": "uint256"
        },
        {
          "indexed": false,
          "name": "user",
          "type": "address"
        }
      ],
      "name": "projectCompleted",
      "type": "event"
    },
    {
      "anonymous": false,
      "inputs": [
        {
          "indexed": false,
          "name": "projectId",
          "type": "uint256"
        },
        {
          "indexed": false,
          "name": "user",
          "type": "address"
        },
        {
          "indexed": false,
          "name": "tokens",
          "type": "uint256"
        }
      ],
      "name": "tokensTransfered",
      "type": "event"
    },
    {
      "anonymous": false,
      "inputs": [
        {
          "indexed": false,
          "name": "projectId",
          "type": "uint256"
        }
      ],
      "name": "taskVerified",
      "type": "event"
    },
    {
      "constant": false,
      "inputs": [
        {
          "name": "user",
          "type": "address"
        },
        {
          "name": "id",
          "type": "string"
        },
        {
          "name": "admin",
          "type": "bool"
        },
        {
          "name": "pass",
          "type": "string"
        }
      ],
      "name": "addUser",
      "outputs": [],
      "payable": false,
      "stateMutability": "nonpayable",
      "type": "function"
    },
    {
      "constant": false,
      "inputs": [
        {
          "name": "id",
          "type": "string"
        },
        {
          "name": "name",
          "type": "string"
        },
        {
          "name": "tokens",
          "type": "uint256"
        },
        {
          "name": "deadline",
          "type": "string"
        }
      ],
      "name": "addProject",
      "outputs": [],
      "payable": false,
      "stateMutability": "nonpayable",
      "type": "function"
    },
    {
      "constant": false,
      "inputs": [
        {
          "name": "id",
          "type": "string"
        },
        {
          "name": "projectId",
          "type": "uint256"
        }
      ],
      "name": "acceptProject",
      "outputs": [],
      "payable": false,
      "stateMutability": "nonpayable",
      "type": "function"
    },
    {
      "constant": false,
      "inputs": [
        {
          "name": "projectId",
          "type": "uint256"
        },
        {
          "name": "deadline",
          "type": "string"
        }
      ],
      "name": "completeProject",
      "outputs": [],
      "payable": false,
      "stateMutability": "nonpayable",
      "type": "function"
    },
    {
      "constant": false,
      "inputs": [
        {
          "name": "projectId",
          "type": "uint256"
        },
        {
          "name": "id",
          "type": "string"
        }
      ],
      "name": "verifyTask",
      "outputs": [],
      "payable": false,
      "stateMutability": "nonpayable",
      "type": "function"
    },
    {
      "constant": false,
      "inputs": [
        {
          "name": "projectId",
          "type": "uint256"
        }
      ],
      "name": "sendTokens",
      "outputs": [],
      "payable": false,
      "stateMutability": "nonpayable",
      "type": "function"
    },
    {
      "constant": false,
      "inputs": [
        {
          "name": "projectId",
          "type": "uint256"
        }
      ],
      "name": "fetchProjectDetails",
      "outputs": [
        {
          "name": "",
          "type": "string"
        },
        {
          "name": "",
          "type": "string"
        },
        {
          "name": "",
          "type": "uint256"
        }
      ],
      "payable": false,
      "stateMutability": "nonpayable",
      "type": "function"
    },
    {
      "constant": false,
      "inputs": [
        {
          "name": "id",
          "type": "string"
        },
        {
          "name": "projectId",
          "type": "uint256"
        }
      ],
      "name": "fetchUserProjectDetails",
      "outputs": [
        {
          "name": "",
          "type": "string"
        },
        {
          "name": "",
          "type": "string"
        },
        {
          "name": "",
          "type": "uint256"
        }
      ],
      "payable": false,
      "stateMutability": "nonpayable",
      "type": "function"
    },
    {
      "constant": true,
      "inputs": [
        {
          "name": "id",
          "type": "string"
        },
        {
          "name": "projectId",
          "type": "uint256"
        }
      ],
      "name": "fetchAdminProjectDetails",
      "outputs": [
        {
          "name": "",
          "type": "bool"
        }
      ],
      "payable": false,
      "stateMutability": "view",
      "type": "function"
    },
    {
      "constant": true,
      "inputs": [
        {
          "name": "id",
          "type": "string"
        }
      ],
      "name": "fetchBalance",
      "outputs": [
        {
          "name": "",
          "type": "uint256"
        }
      ],
      "payable": false,
      "stateMutability": "view",
      "type": "function"
    },
    {
      "constant": true,
      "inputs": [
        {
          "name": "id",
          "type": "string"
        },
        {
          "name": "pass",
          "type": "string"
        }
      ],
      "name": "authorise",
      "outputs": [
        {
          "name": "",
          "type": "bool"
        }
      ],
      "payable": false,
      "stateMutability": "view",
      "type": "function"
    },
    {
      "constant": true,
      "inputs": [
        {
          "name": "id",
          "type": "string"
        }
      ],
      "name": "checkAdmin",
      "outputs": [
        {
          "name": "",
          "type": "bool"
        }
      ],
      "payable": false,
      "stateMutability": "view",
      "type": "function"
    }
  ],
  "bytecode": "0x608060405234801561001057600080fd5b50336000806101000a81548173ffffffffffffffffffffffffffffffffffffffff021916908373ffffffffffffffffffffffffffffffffffffffff1602179055506125a0806100606000396000f3006080604052600436106100db576000357c0100000000000000000000000000000000000000000000000000000000900463ffffffff168063021b6eeb146100e05780631176180014610369578063249db345146103dc57806336fbad26146104595780634fef63b71461048457806352ad40ca146104f757806370a08231146105d25780637843ed3014610629578063785fb76b1461069c5780637be22df9146107fb5780638134f9ef146108c25780638818dfe7146109c1578063cddcaaa114610a42578063dc449d0714610b5b578063f5c6ca0814610be6575b600080fd5b3480156100ec57600080fd5b5061010b60048036038101908080359060200190929190505050610c13565b604051808c73ffffffffffffffffffffffffffffffffffffffff1673ffffffffffffffffffffffffffffffffffffffff16815260200180602001806020018b81526020018a1515151581526020018973ffffffffffffffffffffffffffffffffffffffff1673ffffffffffffffffffffffffffffffffffffffff16815260200188600181111561019757fe5b60ff16815260200187815260200186151515158152602001806020018060200185810385528f818151815260200191508051906020019080838360005b838110156101ef5780820151818401526020810190506101d4565b50505050905090810190601f16801561021c5780820380516001836020036101000a031916815260200191505b5085810384528e818151815260200191508051906020019080838360005b8381101561025557808201518184015260208101905061023a565b50505050905090810190601f1680156102825780820380516001836020036101000a031916815260200191505b50858103835287818151815260200191508051906020019080838360005b838110156102bb5780820151818401526020810190506102a0565b50505050905090810190601f1680156102e85780820380516001836020036101000a031916815260200191505b50858103825286818151815260200191508051906020019080838360005b83811015610321578082015181840152602081019050610306565b50505050905090810190601f16801561034e5780820380516001836020036101000a031916815260200191505b509f5050505050505050505050505050505060405180910390f35b34801561037557600080fd5b506103da60048036038101908080359060200190929190803590602001908201803590602001908080601f0160208091040260200160405190810160405280939291908181526020018383808284378201915050505050509192919290505050610f34565b005b3480156103e857600080fd5b50610443600480360381019080803590602001908201803590602001908080601f0160208091040260200160405190810160405280939291908181526020018383808284378201915050505050509192919290505050611037565b6040518082815260200191505060405180910390f35b34801561046557600080fd5b5061046e61110e565b6040518082815260200191505060405180910390f35b34801561049057600080fd5b506104f560048036038101908080359060200190929190803590602001908201803590602001908080601f0160208091040260200160405190810160405280939291908181526020018383808284378201915050505050509192919290505050611114565b005b34801561050357600080fd5b506105d0600480360381019080803573ffffffffffffffffffffffffffffffffffffffff169060200190929190803590602001908201803590602001908080601f0160208091040260200160405190810160405280939291908181526020018383808284378201915050505050509192919290803515159060200190929190803590602001908201803590602001908080601f016020809104026020016040519081016040528093929190818152602001838380828437820191505050505050919291929050505061124c565b005b3480156105de57600080fd5b50610613600480360381019080803573ffffffffffffffffffffffffffffffffffffffff1690602001909291905050506114b0565b6040518082815260200191505060405180910390f35b34801561063557600080fd5b5061069a600480360381019080803590602001908201803590602001908080601f0160208091040260200160405190810160405280939291908181526020018383808284378201915050505050509192919290803590602001909291905050506114c8565b005b3480156106a857600080fd5b5061070d600480360381019080803590602001908201803590602001908080601f01602080910402602001604051908101604052809392919081815260200183838082843782019150505050505091929192908035906020019092919050505061175d565b604051808060200180602001848152602001838103835286818151815260200191508051906020019080838360005b8381101561075757808201518184015260208101905061073c565b50505050905090810190601f1680156107845780820380516001836020036101000a031916815260200191505b50838103825285818151815260200191508051906020019080838360005b838110156107bd5780820151818401526020810190506107a2565b50505050905090810190601f1680156107ea5780820380516001836020036101000a031916815260200191505b509550505050505060405180910390f35b34801561080757600080fd5b506108a8600480360381019080803590602001908201803590602001908080601f0160208091040260200160405190810160405280939291908181526020018383808284378201915050505050509192919290803590602001908201803590602001908080601f01602080910402602001604051908101604052809392919081815260200183838082843782019150505050505091929192905050506119ec565b604051808215151515815260200191505060405180910390f35b3480156108ce57600080fd5b506109bf600480360381019080803590602001908201803590602001908080601f0160208091040260200160405190810160405280939291908181526020018383808284378201915050505050509192919290803590602001908201803590602001908080601f016020809104026020016040519081016040528093929190818152602001838380828437820191505050505050919291929080359060200190929190803590602001908201803590602001908080601f0160208091040260200160405190810160405280939291908181526020018383808284378201915050505050509192919290505050611b38565b005b3480156109cd57600080fd5b50610a28600480360381019080803590602001908201803590602001908080601f0160208091040260200160405190810160405280939291908181526020018383808284378201915050505050509192919290505050611f83565b604051808215151515815260200191505060405180910390f35b348015610a4e57600080fd5b50610a6d60048036038101908080359060200190929190505050612008565b604051808060200180602001848152602001838103835286818151815260200191508051906020019080838360005b83811015610ab7578082015181840152602081019050610a9c565b50505050905090810190601f168015610ae45780820380516001836020036101000a031916815260200191505b50838103825285818151815260200191508051906020019080838360005b83811015610b1d578082015181840152602081019050610b02565b50505050905090810190601f168015610b4a5780820380516001836020036101000a031916815260200191505b509550505050505060405180910390f35b348015610b6757600080fd5b50610bcc600480360381019080803590602001908201803590602001908080601f0160208091040260200160405190810160405280939291908181526020018383808284378201915050505050509192919290803590602001909291905050506121cd565b604051808215151515815260200191505060405180910390f35b348015610bf257600080fd5b50610c11600480360381019080803590602001909291905050506122db565b005b60036020528060005260406000206000915090508060000160009054906101000a900473ffffffffffffffffffffffffffffffffffffffff1690806001018054600181600116156101000203166002900480601f016020809104026020016040519081016040528092919081815260200182805460018160011615610100020316600290048015610ce55780601f10610cba57610100808354040283529160200191610ce5565b820191906000526020600020905b815481529060010190602001808311610cc857829003601f168201915b505050505090806002018054600181600116156101000203166002900480601f016020809104026020016040519081016040528092919081815260200182805460018160011615610100020316600290048015610d835780601f10610d5857610100808354040283529160200191610d83565b820191906000526020600020905b815481529060010190602001808311610d6657829003601f168201915b5050505050908060030154908060040160009054906101000a900460ff16908060040160019054906101000a900473ffffffffffffffffffffffffffffffffffffffff16908060040160159054906101000a900460ff16908060050154908060060160009054906101000a900460ff1690806007018054600181600116156101000203166002900480601f016020809104026020016040519081016040528092919081815260200182805460018160011615610100020316600290048015610e8c5780601f10610e6157610100808354040283529160200191610e8c565b820191906000526020600020905b815481529060010190602001808311610e6f57829003601f168201915b505050505090806008018054600181600116156101000203166002900480601f016020809104026020016040519081016040528092919081815260200182805460018160011615610100020316600290048015610f2a5780601f10610eff57610100808354040283529160200191610f2a565b820191906000526020600020905b815481529060010190602001808311610f0d57829003601f168201915b505050505090508b565b80600115156002826040518082805190602001908083835b602083101515610f715780518252602082019150602081019050602083039250610f4c565b6001836020036101000a038019825116818451168082178552505050505050905001915050908152602001604051809103902060000160149054906101000a900460ff161515141515610fc357600080fd5b60016003600085815260200190815260200160002060060160006101000a81548160ff0219169083151502179055507f81b826e5d34ee0e49023a74100b78be64f50347f119494c37c97fb0acd5705be836040518082815260200191505060405180910390a1611032836122db565b505050565b6000600460006002846040518082805190602001908083835b6020831015156110755780518252602082019150602081019050602083039250611050565b6001836020036101000a038019825116818451168082178552505050505050905001915050908152602001604051809103902060000160009054906101000a900473ffffffffffffffffffffffffffffffffffffffff1673ffffffffffffffffffffffffffffffffffffffff1673ffffffffffffffffffffffffffffffffffffffff168152602001908152602001600020549050919050565b60015481565b6000809054906101000a900473ffffffffffffffffffffffffffffffffffffffff1673ffffffffffffffffffffffffffffffffffffffff163373ffffffffffffffffffffffffffffffffffffffff1614151561116f57600080fd5b60016003600084815260200190815260200160002060040160156101000a81548160ff021916908360018111156111a257fe5b02179055507ff631077fab7240cce5121cd14837625c5e69cf83558da3ca0941b06beef281ad826003600085815260200190815260200160002060040160019054906101000a900473ffffffffffffffffffffffffffffffffffffffff16604051808381526020018273ffffffffffffffffffffffffffffffffffffffff1673ffffffffffffffffffffffffffffffffffffffff1681526020019250505060405180910390a15050565b6000809054906101000a900473ffffffffffffffffffffffffffffffffffffffff1673ffffffffffffffffffffffffffffffffffffffff163373ffffffffffffffffffffffffffffffffffffffff161415156112a757600080fd5b836002846040518082805190602001908083835b6020831015156112e057805182526020820191506020810190506020830392506112bb565b6001836020036101000a038019825116818451168082178552505050505050905001915050908152602001604051809103902060000160006101000a81548173ffffffffffffffffffffffffffffffffffffffff021916908373ffffffffffffffffffffffffffffffffffffffff160217905550816002846040518082805190602001908083835b60208310151561138d5780518252602082019150602081019050602083039250611368565b6001836020036101000a038019825116818451168082178552505050505050905001915050908152602001604051809103902060000160146101000a81548160ff021916908315150217905550806002846040518082805190602001908083835b60208310151561141357805182526020820191506020810190506020830392506113ee565b6001836020036101000a0380198251168184511680821785525050505050509050019150509081526020016040518091039020600101908051906020019061145c9291906124cf565b5081156114aa576103e8600460008673ffffffffffffffffffffffffffffffffffffffff1673ffffffffffffffffffffffffffffffffffffffff168152602001908152602001600020819055505b50505050565b60046020528060005260406000206000915090505481565b6000809054906101000a900473ffffffffffffffffffffffffffffffffffffffff1673ffffffffffffffffffffffffffffffffffffffff163373ffffffffffffffffffffffffffffffffffffffff1614151561152357600080fd5b6002826040518082805190602001908083835b60208310151561155b5780518252602082019150602081019050602083039250611536565b6001836020036101000a038019825116818451168082178552505050505050905001915050908152602001604051809103902060000160009054906101000a900473ffffffffffffffffffffffffffffffffffffffff166003600083815260200190815260200160002060040160016101000a81548173ffffffffffffffffffffffffffffffffffffffff021916908373ffffffffffffffffffffffffffffffffffffffff16021790555060016003600083815260200190815260200160002060040160006101000a81548160ff0219169083151502179055508160036000838152602001908152602001600020600801908051906020019061165f9291906124cf565b507f0141e3cf917f6238948471175cadcf0fa945e5d0e9c46ea2716ac4c8034c83fe816002846040518082805190602001908083835b6020831015156116ba5780518252602082019150602081019050602083039250611695565b6001836020036101000a038019825116818451168082178552505050505050905001915050908152602001604051809103902060000160009054906101000a900473ffffffffffffffffffffffffffffffffffffffff16604051808381526020018273ffffffffffffffffffffffffffffffffffffffff1673ffffffffffffffffffffffffffffffffffffffff1681526020019250505060405180910390a15050565b606080600084846002826040518082805190602001908083835b60208310151561179c5780518252602082019150602081019050602083039250611777565b6001836020036101000a038019825116818451168082178552505050505050905001915050908152602001604051809103902060000160009054906101000a900473ffffffffffffffffffffffffffffffffffffffff1673ffffffffffffffffffffffffffffffffffffffff166003600083815260200190815260200160002060040160019054906101000a900473ffffffffffffffffffffffffffffffffffffffff1673ffffffffffffffffffffffffffffffffffffffff1614151561186257600080fd5b60036000878152602001908152602001600020600101600360008881526020019081526020016000206002016003600089815260200190815260200160002060030154828054600181600116156101000203166002900480601f01602080910402602001604051908101604052809291908181526020018280546001816001161561010002031660029004801561193a5780601f1061190f5761010080835404028352916020019161193a565b820191906000526020600020905b81548152906001019060200180831161191d57829003601f168201915b50505050509250818054600181600116156101000203166002900480601f0160208091040260200160405190810160405280929190818152602001828054600181600116156101000203166002900480156119d65780601f106119ab576101008083540402835291602001916119d6565b820191906000526020600020905b8154815290600101906020018083116119b957829003601f168201915b5050505050915094509450945050509250925092565b60006002836040518082805190602001908083835b602083101515611a265780518252602082019150602081019050602083039250611a01565b6001836020036101000a03801982511681845116808217855250505050505090500191505090815260200160405180910390206001016040518082805460018160011615610100020316600290048015611ab75780601f10611a95576101008083540402835291820191611ab7565b820191906000526020600020905b815481529060010190602001808311611aa3575b5050915050604051809103902060001916826040518082805190602001908083835b602083101515611afe5780518252602082019150602081019050602083039250611ad9565b6001836020036101000a03801982511681845116808217855250505050505090500191505060405180910390206000191614905092915050565b6000809054906101000a900473ffffffffffffffffffffffffffffffffffffffff1673ffffffffffffffffffffffffffffffffffffffff163373ffffffffffffffffffffffffffffffffffffffff16141515611b9357600080fd5b83600115156002826040518082805190602001908083835b602083101515611bd05780518252602082019150602081019050602083039250611bab565b6001836020036101000a038019825116818451168082178552505050505050905001915050908152602001604051809103902060000160149054906101000a900460ff161515141515611c2257600080fd5b600180600082825401925050819055506002856040518082805190602001908083835b602083101515611c6a5780518252602082019150602081019050602083039250611c45565b6001836020036101000a038019825116818451168082178552505050505050905001915050908152602001604051809103902060000160009054906101000a900473ffffffffffffffffffffffffffffffffffffffff1660036000600154815260200190815260200160002060000160006101000a81548173ffffffffffffffffffffffffffffffffffffffff021916908373ffffffffffffffffffffffffffffffffffffffff160217905550836003600060015481526020019081526020016000206001019080519060200190611d439291906124cf565b50816003600060015481526020019081526020016000206002019080519060200190611d709291906124cf565b508260036000600154815260200190815260200160002060030181905550600060036000600154815260200190815260200160002060040160156101000a81548160ff02191690836001811115611dc357fe5b021790555060015460036000600154815260200190815260200160002060050181905550846003600060015481526020019081526020016000206007019080519060200190611e139291906124cf565b507f67f2716102a85b5cf505b2f9a7dcdacb8e833e14ca2c8856e7fd738d828b659f6002866040518082805190602001908083835b602083101515611e6d5780518252602082019150602081019050602083039250611e48565b6001836020036101000a038019825116818451168082178552505050505050905001915050908152602001604051809103902060000160009054906101000a900473ffffffffffffffffffffffffffffffffffffffff1660015486604051808473ffffffffffffffffffffffffffffffffffffffff1673ffffffffffffffffffffffffffffffffffffffff16815260200183815260200180602001828103825283818151815260200191508051906020019080838360005b83811015611f40578082015181840152602081019050611f25565b50505050905090810190601f168015611f6d5780820380516001836020036101000a031916815260200191505b5094505050505060405180910390a15050505050565b60006002826040518082805190602001908083835b602083101515611fbd5780518252602082019150602081019050602083039250611f98565b6001836020036101000a038019825116818451168082178552505050505050905001915050908152602001604051809103902060000160149054906101000a900460ff169050919050565b606080600083600015156003600083815260200190815260200160002060040160009054906101000a900460ff16151514151561204457600080fd5b60036000868152602001908152602001600020600101600360008781526020019081526020016000206002016003600088815260200190815260200160002060030154828054600181600116156101000203166002900480601f01602080910402602001604051908101604052809291908181526020018280546001816001161561010002031660029004801561211c5780601f106120f15761010080835404028352916020019161211c565b820191906000526020600020905b8154815290600101906020018083116120ff57829003601f168201915b50505050509250818054600181600116156101000203166002900480601f0160208091040260200160405190810160405280929190818152602001828054600181600116156101000203166002900480156121b85780601f1061218d576101008083540402835291602001916121b8565b820191906000526020600020905b81548152906001019060200180831161219b57829003601f168201915b50505050509150935093509350509193909250565b600082826002826040518082805190602001908083835b60208310151561220957805182526020820191506020810190506020830392506121e4565b6001836020036101000a038019825116818451168082178552505050505050905001915050908152602001604051809103902060000160009054906101000a900473ffffffffffffffffffffffffffffffffffffffff1673ffffffffffffffffffffffffffffffffffffffff166003600083815260200190815260200160002060000160009054906101000a900473ffffffffffffffffffffffffffffffffffffffff1673ffffffffffffffffffffffffffffffffffffffff161415156122cf57600080fd5b60019250505092915050565b6003600082815260200190815260200160002060030154600460006003600085815260200190815260200160002060040160019054906101000a900473ffffffffffffffffffffffffffffffffffffffff1673ffffffffffffffffffffffffffffffffffffffff1673ffffffffffffffffffffffffffffffffffffffff168152602001908152602001600020600082825401925050819055506003600082815260200190815260200160002060030154600460006003600085815260200190815260200160002060000160009054906101000a900473ffffffffffffffffffffffffffffffffffffffff1673ffffffffffffffffffffffffffffffffffffffff1673ffffffffffffffffffffffffffffffffffffffff168152602001908152602001600020600082825403925050819055507f67f3e57c19877fa3dda236f4fdbce99e126ed4b6990fa69af5d452b7358633dc816003600084815260200190815260200160002060040160019054906101000a900473ffffffffffffffffffffffffffffffffffffffff166003600085815260200190815260200160002060030154604051808481526020018373ffffffffffffffffffffffffffffffffffffffff1673ffffffffffffffffffffffffffffffffffffffff168152602001828152602001935050505060405180910390a150565b828054600181600116156101000203166002900490600052602060002090601f016020900481019282601f1061251057805160ff191683800117855561253e565b8280016001018555821561253e579182015b8281111561253d578251825591602001919060010190612522565b5b50905061254b919061254f565b5090565b61257191905b8082111561256d576000816000905550600101612555565b5090565b905600a165627a7a723058209ab9c04fc642168d99f009934555abf49254e0c24a5baa0fd26ca9fdde1fdced0029",
  "source": "pragma solidity ^0.4.2;\r\ncontract Dao{\r\n    \r\n    event projectAdded(address owner , uint projectId , string projectName);\r\n    event projectAccepted(uint projectId,address user);\r\n    event projectCompleted(uint projectId,address user);\r\n    event tokensTransfered(uint projectId,address user,uint tokens);\r\n    event taskVerified(uint projectId);\r\n\r\n    address owner;\r\n    enum ProjectStatus{Pending , Completed}    \r\n\r\n    constructor(){                \r\n        owner=msg.sender;\r\n    }\r\n    \r\n    struct Users{\r\n        address user;\r\n        bool isAdmin;\r\n        string password;\r\n    }\r\n    \r\n    struct Project{\r\n        address adminId;\r\n        string name;\r\n        string deadline;\r\n        uint tokens;\r\n        bool assigned;\r\n        address assigned_to;\r\n        ProjectStatus status;\r\n        uint id;\r\n        bool verified;\r\n        string username;\r\n        string employee;\r\n    }\r\n\r\n    uint public projectCount;\r\n\r\n    mapping ( string => Users ) userList;\r\n    mapping ( uint => Project ) public proj;\r\n    mapping ( address => uint ) public balanceOf;\r\n    \r\n    \r\n    modifier isOwner(){               \r\n        require(msg.sender==owner);\r\n        _;\r\n    }\r\n    \r\n    modifier isAdmin(string id){               \r\n        require(userList[id].isAdmin == true);\r\n        _;\r\n    }\r\n\r\n    modifier unAssigned(uint projectId){\r\n        require(proj[projectId].assigned==false);\r\n        _;\r\n    }\r\n\r\n\r\n    modifier belongsUser(string id , uint projectId){\r\n        require(proj[projectId].assigned_to == userList[id].user);\r\n        _;\r\n    }\r\n\r\n    modifier belongsAdmin(string id , uint projectId){\r\n        require(proj[projectId].adminId == userList[id].user);\r\n        _;\r\n    }\r\n\r\n\r\n    \r\n    function addUser(address user , string id , bool admin ,string pass ) isOwner{\r\n        userList[id].user = user;\r\n        userList[id].isAdmin = admin;\r\n        userList[id].password = pass;\r\n        if(admin)\r\n            balanceOf[user] = 1000;\r\n    }\r\n\r\n    function addProject(string id , string name , uint tokens , string deadline  ) isOwner isAdmin(id){\r\n        projectCount+=1;\r\n        proj[projectCount].adminId=userList[id].user;\r\n        proj[projectCount].name=name;\r\n        proj[projectCount].deadline=deadline;\r\n        proj[projectCount].tokens=tokens;\r\n        proj[projectCount].status=ProjectStatus.Pending;\r\n        proj[projectCount].id=projectCount;\r\n        proj[projectCount].username=id;\r\n        projectAdded(userList[id].user , projectCount , name);\r\n    }\r\n\r\n    function acceptProject(string id , uint projectId) isOwner{\r\n        proj[projectId].assigned_to = userList[id].user;\r\n        proj[projectId].assigned = true;\r\n        proj[projectId].employee=id;\r\n        projectAccepted(projectId,userList[id].user);\r\n    }\r\n\r\n    function completeProject(uint projectId , string deadline) isOwner{\r\n        proj[projectId].status=ProjectStatus.Completed;\r\n        projectCompleted(projectId,proj[projectId].assigned_to);\r\n    }\r\n\r\n    function verifyTask(uint projectId , string id) isAdmin(id){\r\n        proj[projectId].verified=true;\r\n        taskVerified(projectId);\r\n        sendTokens(projectId);\r\n    }    \r\n\r\n    function sendTokens(uint projectId){\r\n        balanceOf[proj[projectId].assigned_to]+=proj[projectId].tokens;\r\n        balanceOf[proj[projectId].adminId]-=proj[projectId].tokens;\r\n        tokensTransfered(projectId,proj[projectId].assigned_to,proj[projectId].tokens);\r\n    }\r\n\r\n    function fetchProjectDetails(uint projectId)  unAssigned(projectId) returns (string , string , uint ){                 \r\n        return (proj[projectId].name,proj[projectId].deadline,proj[projectId].tokens);\r\n    }\r\n\r\n     function fetchUserProjectDetails(string id ,uint projectId) belongsUser(id , projectId) returns (string , string , uint ) {                 \r\n        return (proj[projectId].name,proj[projectId].deadline,proj[projectId].tokens);\r\n    }\r\n\r\n    function fetchAdminProjectDetails(string id ,uint projectId)  belongsAdmin(id , projectId) public view returns (bool){                 \r\n        return true;\r\n    }\r\n\r\n    function fetchBalance(string id) public view returns(uint){\r\n        return balanceOf[userList[id].user];\r\n    }\r\n\r\n    function authorise(string id,string pass) public view returns(bool){\r\n        return keccak256(pass) == keccak256(userList[id].password);\r\n    }   \r\n\r\n    function checkAdmin(string id) public view returns(bool){\r\n        return userList[id].isAdmin;\r\n    }\r\n    \r\n}",
  "sourcePath": "C:\\Users\\Siddharth\\Desktop\\SID\\exelis\\DAOO\\MVP1\\daoo\\contracts\\Dao.sol",
  "compiler": {
    "name": "solc",
    "version": "0.4.24+commit.e67f0147.Emscripten.clang"
  },
  "schemaVersion": "2.0.0",
  "updatedAt": "2018-08-29T08:49:00.412Z"
}